S01900004C504C445F4C65644C696768745F4B36302E7372656363
S3151FFF0000F028FF1F1104FF1F2104FF1F4713FF1FA8
S3151FFF00102104FF1F2104FF1F2104FF1F00000000F3
S3151FFF00200000000000000000000000002104FF1F69
S3151FFF00302104FF1F000000002104FF1F2104FF1FD3
S3151FFF00404118FF1F5718FF1F6D18FF1F8318FF1F2C
S3151FFF00509918FF1FAF18FF1FC518FF1FDB18FF1FBC
S3151FFF0060F118FF1F0719FF1F1D19FF1F3319FF1F49
S3151FFF00704919FF1F5F19FF1F7519FF1F8B19FF1FD8
S3151FFF00802104FF1F2104FF1F2104FF1F2104FF1F40
S3151FFF00902104FF1F2104FF1F2104FF1F2104FF1F30
S3151FFF00A09D1AFF1FF71AFF1F050EFF1FAF0EFF1F1C
S3151FFF00B0590FFF1F5716FF1F6116FF1F6316FF1FDF
S3151FFF00C06516FF1F6716FF1F6916FF1F6B16FF1F9C
S3151FFF00D06D16FF1F6F16FF1F9116FF1F9316FF1F2C
S3151FFF00E09516FF1F9716FF1F9916FF1F9B16FF1FBC
S3151FFF00F09D16FF1F4307FF1F2104FF1F7307FF1FC8
S3151FFF01002104FF1FA307FF1F2104FF1FD307FF1F85
S3151FFF01102104FF1F0308FF1F2104FF1F3308FF1FB3
S3151FFF01202104FF1F0D21FF1F1721FF1F2104FF1F83
S3151FFF01302104FF1F2104FF1F9920FF1FA320FF1F5D
S3151FFF0140AD20FF1F2104FF1F251EFF1F00000000FC
S3151FFF0150551DFF1F6B1DFF1F811DFF1F971DFF1FB7
S3151FFF0160E91BFF1F9121FF1F2104FF1FB51BFF1F48
S3151FFF01708F1BFF1F691BFF1FCB1BFF1F2104FF1FAA
S3151FFF01802104FF1FA919FF1F131AFF1FE51CFF1FBE
S3151FFF01902104FF1FED20FF1F2104FF1F8F17FF1FC6
S3151FFF01A0A117FF1FB317FF1FC517FF1FD717FF1F67
S3151FFF01B02104FF1F2104FF1F2104FF1F2104FF1F0F
S3151FFF01C02104FF1F2104FF1F2104FF1F2104FF1FFF
S3151FFF01D02104FF1F2104FF1F2104FF1F2104FF1FEF
S3151FFF01E05113FF1F5113FF1F5113FF1F5113FF1FE3
S3151FFF041001488047014800470912FF1F691CFF1F3C
S3151FFF042000F096BF0FB4F0B50598069B9DF81C709C
S3151FFF04309DF81D500899099A002B01D14FF41653A9
S3151FFF0440DFF82044A0423FD10024DFF81C64366842
S3151FFF0450DFF818C4DCF800C05CF4806CDFF80CE42E
S3151FFF0460CEF800C0FFB2022F06D1DFF804744FF497
S3151FFF0470007CC7F800C00FE0FFB20E2F06D1DFF8D2
S3151FFF0480F4734FF4407CC7F800C005E0DFF8E8734C
S3151FFF04904FF4407CC7F800C0EDB2012D05D1DFF840
S3151FFF04A0DC534FF400772F60F4E0EDB20F2D05D12B
S3151FFF04B0DFF8CC534FF440772F60EBE0DFF8C453E0
S3151FFF04C04FF440772F60E5E0DFF8BC43A0422CD105
S3151FFF04D00124DFF894633668DFF890C3DCF800C0A9
S3151FFF04E05CF4006CDFF884E3CEF800C0FFB27C2F0C
S3151FFF04F006D1DFF898734FF4407CC7F800C005E0BC
S3151FFF0500DFF88C734FF4407CC7F800C0EDB27D2D2A
S3151FFF051005D1DFF880534FF440772F60BAE0DFF83D
S3151FFF052078534FF440772F60B4E0DFF870432668A7
S3151FFF0530DFF86C43A04213D10224DFF830532D6836
S3151FFF054055F48055DFF824733D60DFF858534FF499
S3151FFF055040772F60DFF850534FF440772F6099E0B5
S3151FFF0560DFF84843A0423CD10324DFF800C3DCF881
S3151FFF057000C05CF4005CDFF8F4E2CEF800C0FFB207
S3151FFF0580802F06D1DFF828734FF4407CC7F800C0D1
S3151FFF05900FE0FFB22B2F06D1DFF818734FF4407C05
S3151FFF05A0C7F800C005E0DFF810734FF4407CC7F8AB
S3151FFF05B000C0EDB2812D05D1DFF800534FF4407710
S3151FFF05C02F6067E0EDB22A2D05D1DFF8F4524FF405
S3151FFF05D040772F605EE0DFF8EC524FF440772F60D5
S3151FFF05E058E0DFF8E442A04229D10424DFF8DCC239
S3151FFF05F0DCF800C05CF4806CDFF8D0E2CEF800C0F8
S3151FFF0600FFB2942F06D1DFF8C8724FF4407CC7F8AC
S3151FFF061000C005E0DFF8BC724FF4407CC7F800C08E
S3151FFF0620EDB2952D05D1DFF8B0524FF440772F600D
S3151FFF063030E0DFF8A8524FF440772F602AE00524F9
S3151FFF0640DFF89C02DFF884C2DCF800C05CF4006CA4
S3151FFF0650DFF878E2CEF800C0FFB2652F06D1DFF8CC
S3151FFF066084724FF4407CC7F800C005E0DFF878724C
S3151FFF06704FF4407CC7F800C0EDB2642D05D1DFF8FB
S3151FFF06806C524FF440772F6004E0DFF864524FF44B
S3151FFF069040772F60C57815F0F305C5700025857067
S3151FFF06A01D01B6FBF5F5077817F0E007ADB25FEA58
S3151FFF06B0152C1CF01F0C5CEA0707077045707601A7
S3151FFF06C01B01B6FBF3F3ADB2B3EB4513857A15F0FA
S3151FFF06D0E00713F01F033B4383729DF81E30012B68
S3151FFF06E00BD10B00002B08D0C37853F02003C37028
S3151FFF06F0E4B2804B43F8241003E0C17811F0DF0109
S3151FFF0700C1709DF81F1001290BD11100002908D0B8
S3151FFF0710C17851F08001C170E4B2774941F82420B6
S3151FFF072003E0C17811F07F01C170C17851F00C0150
S3151FFF0730C170F0BC5DF814FB02791206FCD5C171BE
S3151FFF0740704780B56D480078800606D56C480078DF
S3151FFF0750800602D56748006880476848007800060C
S3151FFF076006D567480078000602D5634800688047AC
S3151FFF077001BD80B563480078800606D562480078BC
S3151FFF0780800602D55B48406880475E4800780006B2
S3151FFF079006D55D480078000602D557484068804752
S3151FFF07A001BD80B559480078800606D558480078A0
S3151FFF07B0800602D54F488068804754480078000658
S3151FFF07C006D553480078000602D54B4880688047F8
S3151FFF07D001BD80B54F480078800606D54E48007884
S3151FFF07E0800602D54348C06880474A4800780006FE
S3151FFF07F006D549480078000602D53F48C06880479E
S3151FFF080001BD80B545480078800606D54448007867
S3151FFF0810800602D5374800698047404800780006A2
S3151FFF082006D53F480078000602D533480069804742
S3151FFF083001BD80B53B480078800606D53A4800784B
S3151FFF0840800602D52B484069804736480078000648
S3151FFF085006D535480078000602D5274840698047E8
S3151FFF086001BD000000A006400022FF1F3480044088
S3151FFF0870089004403890044044A00440049004406C
S3151FFF08803C90044040A0044000B0064000D0044006
S3151FFF089010B0044004D004400CB004400422FF1FD4
S3151FFF08A000C006400CC0044008C0044000D00640EC
S3151FFF08B010D004402CA0044044B0044014D0044080
S3151FFF08C028A0044040B0044000A00E4028800440EA
S3151FFF08D060D004403CB0044064D0044038B00440AC
S3151FFF08E000B00E4024C0044020D0044020C0044066
S3151FFF08F024D00440A424FF1FBC24FF1F04A00640CE
S3151FFF090003A0064004B0064003B0064004C00640DD
S3151FFF091003C0064004D0064003D0064004A00E4085
S3151FFF092003A00E4004B00E4003B00E4010B50C00DE
S3151FFF09301168012902D0022904D009E040B251688B
S3151FFF0940884705E0916808709068401C9060FFE734
S3151FFF09502068401C206010BD30B41C0000230025FA
S3151FFF09600570401C002A19D0096800290AD13021B9
S3151FFF097001705B1C180030BC7047303511000570C5
S3151FFF0980401C5B1C0029F5D091FBF4F204FB1215EA
S3151FFF0990002DF2D5E94311F13105EFE7096800296B
S3151FFF09A008D1302101705B1CE4E737351100057054
S3151FFF09B0401C5B1C0029DDD0B1FBF4F204FB1215B2
S3151FFF09C00A2DF2D23035F1E7F8B504000D001600F7
S3151FFF09D01F0005E03A0031003020FFF7A7FF641C18
S3151FFF09E0AC42F7DBF1BDF8B504000D0016001F0082
S3151FFF09F005E03A0031002020FFF798FF641CAC4248
S3151FFF0A00F7DBF1BD2DE9F04F8DB005001600002075
S3151FFF0A1000900C0005E02A0000A91800FFF786FFCB
S3151FFF0A20641C94F90030002B00F0C881252B12D0CF
S3151FFF0A300A2B05D02A0000A91800FFF777FF09E048
S3151FFF0A402A0000A90D20FFF771FF2A0000A90A201F
S3151FFF0A50FFF76CFFE4E70027002101E057F00107CE
S3151FFF0A6000291CD1641C94F9000020280BD02328D1
S3151FFF0A700FD02B2804D02D28F0D0302806D00BE01E
S3151FFF0A8057F00207ECE757F00407E9E757F00807A7
S3151FFF0A90E6E757F01007E3E7641E0121E0E75FF083
S3151FFF0AA00008002104E00A2000FB0830B0F13008DF
S3151FFF0AB0002909D1641C94F9003018003038092821
S3151FFF0AC0F1D9641E0121F3E7641C94F900002E2857
S3151FFF0AD00CD10021FFE7002909D1641C94F90000FE
S3151FFF0AE030380928F7D9641E0121F4E7641E641CF8
S3151FFF0AF094F900004C2806D0682802D06C2801D034
S3151FFF0B0002E002E001E000E0641E641C94F900307D
S3151FFF0B101800582874D0622800F0D080632800F090
S3151FFF0B201881642813D0692811D06E2800F04181DF
S3151FFF0B306F2800F0B880702800F0CB80732800F074
S3151FFF0B401081752800F0D080782859D063E7306868
S3151FFF0B500390361D0A23012203A904A8FFF7FCFEF3
S3151FFF0B60824604A81AEB00090398002804D52D20F6
S3151FFF0B7002901AF1010A0FE0B80704D52B20029045
S3151FFF0B801AF1010A08E0780704D5202002901AF10E
S3151FFF0B90010A01E0002002905FF0000B380711D514
S3151FFF0BA00298002804D02A0000A90298FFF7BEFE6C
S3151FFF0BB05FF0010B2B0000AA41465046FFF704FFCB
S3151FFF0BC0C24611E0F8070FD42B0000AA4146504634
S3151FFF0BD0FFF709FF0298002804D02A0000A90298F0
S3151FFF0BE0FFF7A4FE5FF0010BBBF1000F07D10298C1
S3151FFF0BF0002804D02A0000A90298FFF797FE9BE062
S3151FFF0C0030680190361D1023002201A904A8FFF7A3
S3151FFF0C10A3FE824604A81AEB00095FF0000B3807F4
S3151FFF0C2015D5F8060BD52A0000A93020FFF77EFE43
S3151FFF0C302A0000A97820FFF779FE5FF0010B2B0032
S3151FFF0C4000AA41465046FFF7BFFEC24619E0F80706
S3151FFF0C5017D4F80601D51AF1020A2B0000AA41463E
S3151FFF0C605046FFF7C0FEF8060BD52A0000A9302015
S3151FFF0C70FFF75CFE2A0000A97820FFF757FE5FF0FB
S3151FFF0C80010BF8060ED5BBF1000F0BD12A0000A9E9
S3151FFF0C903020FFF74BFE2A0000A97820FFF746FEFC
S3151FFF0CA01AF1020A48E030680190361D0823002218
S3151FFF0CB001A904A8FFF750FE82461FE03068019086
S3151FFF0CC0361D0223002201A904A8FFF745FE82460F
S3151FFF0CD014E030680190361D1023002201A904A8D5
S3151FFF0CE0FFF73AFE824609E030680190361D0A2358
S3151FFF0CF0002201A904A8FFF72FFE824604A81AEBBC
S3151FFF0D000009380707D52B0000AA41465046FFF7B3
S3151FFF0D105BFEC24610E0F8070ED42B0000AA414621
S3151FFF0D205046FFF760FE07E02A0000A999F9000069
S3151FFF0D30FFF7FCFDB9F1010999F900000028F3D16E
S3151FFF0D40F80705D52B0000AA41465046FFF74BFE75
S3151FFF0D5066E696F90000361D2A0000A9FFF7E6FD95
S3151FFF0D605EE6D6F80090361DB9F1000F20D0484633
S3151FFF0D7000F03AF88246F8070ED42B0000AA414628
S3151FFF0D805046FFF730FE07E02A0000A999F9000039
S3151FFF0D90FFF7CCFD19F1010999F900000028F3D1DE
S3151FFF0DA0F80705D52B0000AA41465046FFF71BFE45
S3151FFF0DB036E63068361D0099016031E600980DB0A2
S3151FFF0DC0BDE8F08F0EB400B584B00121009105492F
S3151FFF0DD0019105AA010000A8FFF714FE04B05DF8F4
S3151FFF0DE010FB00006921FF1F0021002802D10020F0
S3151FFF0DF007E0491C0200501C92F90020002AF8D177
S3151FFF0E000800704780B582480068002809D57D48CD
S3151FFF0E10006880477E48006850F000407C490860A4
S3151FFF0E2044E07B480068C00009D576484068804784
S3151FFF0E307748006850F080507549086036E074485F
S3151FFF0E400068000109D56F488068804770480068B1
S3151FFF0E5050F000606E49086028E06D480068800109
S3151FFF0E6009D56848006980476948006850F00070D7
S3151FFF0E70674908601AE066480068000309D561489C
S3151FFF0E80C06880476248006850F4002060490860C8
S3151FFF0E900CE05F480068800308D55A4840698047C1
S3151FFF0EA05B48006850F400305949086001BD80B5A2
S3151FFF0EB058480068002809D5534800688047554899
S3151FFF0EC0006850F000405349086044E051480068ED
S3151FFF0ED0C00009D54C48406880474E48006850F00F
S3151FFF0EE080504C49086036E04A480068000109D522
S3151FFF0EF04548806880474748006850F0006045496D
S3151FFF0F00086028E043480068800109D53E4800690C
S3151FFF0F1080474048006850F000703E4908601AE05D
S3151FFF0F203C480068000309D53748C06880473948E1
S3151FFF0F30006850F40020374908600CE03548006808
S3151FFF0F40800308D53048406980473248006850F40F
S3151FFF0F5000303049086001BD80B52F480068002862
S3151FFF0F6009D52A48006880472B48006850F0004083
S3151FFF0F702949086044E028480068C00009D523486E
S3151FFF0F80406880472448006850F080502249086017
S3151FFF0F9036E021480068000109D51C488068804754
S3151FFF0FA01D48006850F000601B49086028E01A487A
S3151FFF0FB00068800109D515480069804716480068F3
S3151FFF0FC050F00070144908601AE0134800680003C8
S3151FFF0FD009D50E48C06880470F48006850F40020A7
S3151FFF0FE00D4908600CE00C480068800308D50748C8
S3151FFF0FF0406980470848006850F40030064908607A
S3151FFF100001BD00005424FF1F6C24FF1F8424FF1FF4
S3151FFF10102CC002402CD002402CC00A40F8B5C0B2EB
S3151FFF1020C92801D3C820FFE7C0B2010030290ED05F
S3151FFF103032292CD060292DD064292ED078292FD084
S3151FFF1040962930D0B42931D0C82932D034E0182799
S3151FFF10500025C0B2010032290AD0642930D0782971
S3151FFF106031D0962932D0B42933D0C82934D036E0AF
S3151FFF10700727012506000024C0B23221B0FBF1F17C
S3151FFF1080491E0A00D2B2FF2A2DD1002133E01827AD
S3151FFF10900125DEE718271825DBE718271A25D8E7C6
S3151FFF10A013271825D5E70F271825D2E70E271E2545
S3151FFF10B0CFE70C271C25CCE76020FFF7AFFF93E098
S3151FFF10C007271025D6E704270825D3E704270E256C
S3151FFF10D0D0E704271425CDE704271825CAE7602084
S3151FFF10E0FFF79CFF80E0C0B2C9B24A1C90FBF2F229
S3151FFF10F0332A00D3491CC0B23222B0FBF2F2521E72
S3151FFF11001300DBB2FF2B01D1002207E0C0B2D2B220
S3151FFF1110531C90FBF3F3332B00D3521CC0B219237E
S3151FFF1120B0FBF3F35B1E9C465FFA8CFCBCF1FF0F13
S3151FFF113001D1002308E0C0B2DBB213F1010C90FB13
S3151FFF1140FCF01A2800D35B1C28485FF0000C80F8C0
S3151FFF115000C02748006850F08050DFF894C0CCF8D5
S3151FFF116000002448007850F08000DFF888C08CF814
S3151FFF1170000021485FF0980C80F800C01F480078D8
S3151FFF1180C006FBD41D480078C0F38100C0B20228F9
S3151FFF1190F8D117F01F001A4F38701A48002707702B
S3151FFF11A0DBB2D2B2C9B2E4B2200001F003F815F0E8
S3151FFF11B01F0050F040001349087010480078800642
S3151FFF11C0FBD50E4800784006FBD50B48007810F07C
S3151FFF11D03F000949087009480078C0F38100C0B273
S3151FFF11E00328F8D13000C0B2F2BD00BF0140064050
S3151FFF11F03480044008C007400040064006400640B2
S3151FFF1200044006400540064000B587B056480068B3
S3151FFF121050F478505449086054484CF220510180CD
S3151FFF122052484DF62811018051484FF4E97101804C
S3151FFF123000F0CAF87820FFF7F1FE00F05FF84D487F
S3151FFF12404D49096801604B4800684C490968C1F35D
S3151FFF12500361491CB0FBF1F0494908604548006826
S3151FFF126046490968C1F30351491CB0FBF1F04549D3
S3151FFF127008604048006841490968C1F30341491C9A
S3151FFF1280B0FBF1F040490860404801904FF41650FB
S3151FFF1290029001A984B06846142200F0E5F80FBC3E
S3151FFF12A0FFF7C0F82FA0FFF78DFD3948FFF78AFD1F
S3151FFF12B038493948FFF786FD314800683749B0FB83
S3151FFF12C0F1F22C4800683549B0FBF1F13448FFF7BE
S3151FFF12D079FD2D4800683149B0FBF1F229480068B6
S3151FFF12E02E49B0FBF1F12F48FFF76CFD2E48FFF794
S3151FFF12F069FD2E48FFF766FD07B000BD2C48007835
S3151FFF1300C0B210F01F0018302A4948432A490978EE
S3151FFF1310C9B211F01F01491CB0FBF1F0244909782E
S3151FFF1320C9B211F00F011031224A51430800224959
S3151FFF13300978C9B211F00701491CB0FBF1F040084B
S3151FFF13400D490860704780B51C48FFF73BFD01BD7F
S3151FFF135080B51B480078C0B2B0F110011948FFF7DE
S3151FFF136031FD01BD0D0A0000388004400E200540E7
S3151FFF1370002005400022FF1F1022FF1F448004404C
S3151FFF13800422FF1F0C22FF1F0822FF1F00A006407B
S3151FFF1390181FFF1FAC21FF1FF41FFF1F40420F0027
S3151FFF13A07420FF1F2020FF1FC01DFF1FD01EFF1F02
S3151FFF13B00540064080F0FA0204400640CC20FF1F7E
S3151FFF13C004ED00E0C41FFF1F1C481D4988420BD0B8
S3151FFF13D0002006E019491A4A52F8202041F820201A
S3151FFF13E0401CB0F5826FF5D31648144901601649A4
S3151FFF13F0164A1748801A03E013780B70521C491CB4
S3151FFF14000300581E002BF7D112491348401A02E05A
S3151FFF141000220A70491C0200501E002AF8D10F49EC
S3151FFF14200F4A1048801A03E013780B70521C491C91
S3151FFF14300300581E002BF7D1704700BF0000FF1F88
S3151FFF14400000FF1F08ED00E00022FF1F7C21FF1F8A
S3151FFF14509021FF1F1422FF1FEC24FF1FB421FF1F24
S3151FFF1460841EFF1FD01EFF1F103A07D330B4B1E8EB
S3151FFF14703810103AA0E83810F9D230BC530724BFF2
S3151FFF1480B1E80810A0E8081044BF51F8043B40F824
S3151FFF1490043BD20724BF31F8022B20F8022B44BF8F
S3151FFF14A00B7803707047083A07D3B1E80810083A5C
S3151FFF14B040F8043B40F804CBF7D25307E4E750F854
S3151FFF14C0041B61B150F8042BD30744BFA9F10103D5
S3151FFF14D09A18002342F8043B091FFAD1EFE770471A
S3151FFF14E0C9B2202906D2026B012313FA01F1114358
S3151FFF14F0016306E0C26A0123203913FA01F1114382
S3151FFF1500C1627047C9B2202904D2006BC84010F0D0
S3151FFF1510010004E0C06A2039C84010F00100C0B2C4
S3151FFF1520704738B505000C002100C9B22800FFF728
S3151FFF1530E9FF002812D02100C9B22800FFF7D0FF0C
S3151FFF15404E4885420BD1E4B24E4850F8240000287E
S3151FFF155004D0E4B24B4850F82400804731BD4848B9
S3151FFF156085420BD1E4B2484850F824000028F5D035
S3151FFF1570E4B2454850F824008047EFE7EEE738B559
S3151FFF158004000D002900C9B22000FFF7BBFF00288A
S3151FFF159012D03A48844210D1EDB23A4850F825008E
S3151FFF15A0002804D0EDB2374850F8250080472900A0
S3151FFF15B0C9B22000FFF794FF31BD314884420BD1DA
S3151FFF15C0EDB2314850F825000028F0D0EDB22E4875
S3151FFF15D050F825008047EAE7EEE738B504000025F7
S3151FFF15E007E0C9B2012903D12900C9B2FFF7C7FF17
S3151FFF15F06D1CEDB2102D0ED2EDB228010059EDB2C2
S3151FFF160014EB0511497AC9B20229EAD12900C9B2D9
S3151FFF1610FFF787FFECE731BD38B50400002507E06C
S3151FFF1620C9B2012903D12900C9B2FFF7A8FF6D1C53
S3151FFF1630EDB2102D0ED2EDB228010059EDB214EB0B
S3151FFF16400511497AC9B20229EAD12900C9B2FFF7A2
S3151FFF165068FFECE731BD80B50C48FFF7BEFF01BD44
S3151FFF1660704770477047704770477047704780B520
S3151FFF16700648FFF7D1FF01BD0000000000400240F2
S3151FFF168000400A401C23FF1F5C23FF1F1C22FF1F56
S3151FFF16907047704770477047704770477047000025
S3151FFF16A00FB42DE9F8430A9850F48074089F099DDB
S3151FFF16B09DF82C809DF82D900C9E4B48874203D397
S3151FFF16C035214A4800F0B4F85FFA88F8B8F1020FDF
S3151FFF16D003D33621454800F0ABF85FFA89F9B9F114
S3151FFF16E0020F03D33721414800F0A2F84048874233
S3151FFF16F010D1404900205FFA88F8B8F1010F25D1B4
S3151FFF17007A692A437A615FFA89F9B9F1010F1BD109
S3151FFF17107D601EE03848874202D138490120EAE73B
S3151FFF17203748874202D137490220E4E736488742C6
S3151FFF173002D136490320DEE73548874202D13549B4
S3151FFF17400420D8E7002019E0BD6002E07A69AA43AA
S3151FFF17507A61002207E0012393401D4202D0D2B2D5
S3151FFF176041F82240521CD2B2202AF4D3310000295D
S3151FFF177003D0C0B2284941F820600120BDE8F2031B
S3151FFF17805DF814FB012212FA01F1C160704780B5A3
S3151FFF179021480068804721485FF0FF31016001BD86
S3151FFF17A080B51D48406880471D485FF0FF310160C7
S3151FFF17B001BD80B51848806880471A485FF0FF3122
S3151FFF17C0016001BD80B51448C068804716485FF0A9
S3151FFF17D0FF31016001BD80B50F480069804713487F
S3151FFF17E05FF0FF31016001BD01F10F405C1FFF1F5D
S3151FFF17F000F00F400090044040F00F4000A004404F
S3151FFF180080F00F4000B00440C0F00F4000C00440FE
S3151FFF181000F10F4000D004401024FF1FA09004408A
S3151FFF1820A0A00440A0B00440A0C00440A0D0044024
S3151FFF18300A0001000148FFF7C5FAFEE7941FFF1FC5
S3151FFF184080B55748006880475648006850F001002A
S3151FFF18505449086001BD80B55148406880475148CB
S3151FFF1860006850F002004F49086001BD80B54C4823
S3151FFF1870806880474B48006850F00400494908605C
S3151FFF188001BD80B54648C06880474648006850F08E
S3151FFF189008004449086001BD80B54148006980477B
S3151FFF18A04048006850F010003E49086001BD80B5F2
S3151FFF18B03B48406980473B48006850F02000394944
S3151FFF18C0086001BD80B53648806980473548006886
S3151FFF18D050F040003349086001BD80B53048C069EC
S3151FFF18E080473048006850F080002E49086001BDD0
S3151FFF18F080B52B48006A80472A48006850F48070DD
S3151FFF19002849086001BD80B52548406A804725489C
S3151FFF1910006850F400702349086001BD80B5204858
S3151FFF1920806A80471F48006850F001001D49086004
S3151FFF193001BD80B51A48C06A80471A48006850F42F
S3151FFF194000601849086001BD80B51548006B8047C8
S3151FFF19501448006850F480501249086001BD80B5D5
S3151FFF19600F48406B80470F48006850F400500D49E1
S3151FFF1970086001BD80B50A48806B8047094800682B
S3151FFF198050F480400749086001BD80B50448C06B0D
S3151FFF199080470448006850F400400249086001BDB3
S3151FFF19A0B423FF1F2480004080B538480078C00746
S3151FFF19B00CD537480078C00708D5314800688047DF
S3151FFF19C03248007810F0FE00304908702F48007823
S3151FFF19D080070CD52E480078800708D52948006850
S3151FFF19E080472A48007810F0FD00284908702748CD
S3151FFF19F0007840070CD526480078400708D52248AF
S3151FFF1A00006880472148007810F0FB001F490870C7
S3151FFF1A1001BD80B51F480078C0070CD51E4800784A
S3151FFF1A20C00708D51648406880471A48007810F047
S3151FFF1A30FE00184908701748007880070CD516480E
S3151FFF1A400078800708D50F484068804711480078FF
S3151FFF1A5010F0FD000F4908700E48007840070CD59F
S3151FFF1A600D480078400708D5074840688047094852
S3151FFF1A70007810F0FB000749087001BD0000000049
S3151FFF1A809C23FF1FA423FF1FAC23FF1F20C00C4057
S3151FFF1A9021C00C4020D00C4021D00C4080B52E48D1
S3151FFF1AA00078800726D52B48006880472B4800788B
S3151FFF1AB0000705D52948007850F008002749087008
S3151FFF1AC026480078800705D52448007850F0020085
S3151FFF1AD02249087020480078C00605D51E480078A1
S3151FFF1AE050F010001C4908701B48007850F0020088
S3151FFF1AF01949087001BD80B519480078800726D59A
S3151FFF1B0014484068804717480078000705D51548D1
S3151FFF1B10007850F0080013490870124800788007B4
S3151FFF1B2005D51048007850F002000E4908700C4882
S3151FFF1B300078C00605D50A48007850F010000849FE
S3151FFF1B4008700748007850F002000549087001BD6C
S3151FFF1B50000000002424FF1F0360064008600640A4
S3151FFF1B60037006400870064080B5DFF878000068EE
S3151FFF1B7050F00070DFF86C100860DFF86400006833
S3151FFF1B80002803D0DFF858000068804701BD80B5E5
S3151FFF1B90DFF85000006850F00060DFF8481008605B
S3151FFF1BA0DFF83C004068002803D0DFF834004068A8
S3151FFF1BB0804701BD80B5DFF828008068002803D065
S3151FFF1BC0DFF81C008068804701BD80B5DFF8100075
S3151FFF1BD0C068002803D0DFF80800C068804701BD32
S3151FFF1BE0F423FF1F04000C4080B51A480068400607
S3151FFF1BF00CD518480068800608D517480068804727
S3151FFF1C001448006830F04000124908601448006805
S3151FFF1C10C0070CD50F480068800308D50F4800681A
S3151FFF1C2080470F48006850F001000D4908600D48B6
S3151FFF1C30006880070CD507480068800308D507484A
S3151FFF1C40006880470748006850F002000549086092
S3151FFF1C5001BD0000006003403024FF1F3424FF1F17
S3151FFF1C60146003403C60034000F00DF8132421006D
S3151FFF1C70C9B21248FFF786FD641C182C00D1142425
S3151FFF1C8000F020F8F3E780B50D480C4901600C48BA
S3151FFF1C905FF4700141600A48012101730848012161
S3151FFF1CA04173074800218160054984B068461422A5
S3151FFF1CB0FFF7DAFB0FBCFFF7F3FC01BD40F00F4048
S3151FFF1CC0D824FF1F002005E000BF491C89B2C82981
S3151FFF1CD0FAD3401C47F2305180B2884201D200210D
S3151FFF1CE0F4E7704780B51748006848F210010842AD
S3151FFF1CF017D015480068002813D01348006880477F
S3151FFF1D001048006850F480400E4908600D4800686F
S3151FFF1D1050F400400B4908600C484FF6FF710160F5
S3151FFF1D200DE00A480068002809D0074840680028C8
S3151FFF1D3005D005484068804704480549016001BD35
S3151FFF1D4000000000005004409C24FF1F0C5004405D
S3151FFF1D500000FFFF80B515480068804714480068DC
S3151FFF1D6050F001001249086001BD80B50F48406859
S3151FFF1D7080471048006850F001000E49086001BDFA
S3151FFF1D8080B50A48806880470B48006850F00100FD
S3151FFF1D900949086001BD80B50448C06880470748E8
S3151FFF1DA0006850F001000549086001BD3824FF1F78
S3151FFF1DB00C7103401C7103402C7103403C7103409F
S3151FFF1DC053797374656D207374617274204F4B2141
S3151FFF1DD02121696620796F752077616E742064698A
S3151FFF1DE07361626C65204445425547204F555450D9
S3151FFF1DF055542C20706C6561736520646566696E2A
S3151FFF1E0065205052494E545F4F4E5F4F46462069DD
S3151FFF1E10732031286B36305F636172642E68290D1C
S3151FFF1E200A00000080B516480068C00709D5134889
S3151FFF1E30006880471248006850F00100104908608B
S3151FFF1E401AE00F480068800709D50C48406880478D
S3151FFF1E500B48006850F00200094908600CE008486B
S3151FFF1E600068400708D50548806880470448006812
S3151FFF1E7050F004000249086001BD00004824FF1FFF
S3151FFF1E8014D0034070B4104C24680F4D2D6855F4C1
S3151FFF1E907F050D4E3560090611F0706151EA00701E
S3151FFF1EA0110511F470010843190411F47021084339
S3151FFF1EB006490860002000E0401CC0B29842FBD3D1
S3151FFF1EC00148046070BC704700F001404480044025
S3151FFF1ED02A2A2A2A2A2A2A2A2A2A2A2A2A2A2A2A3E
S3151FFF1EE02A2A2A2A2A2A2A2A2A2A2A2A2A2A2A2A2E
S3151FFF1EF02A2A2A2A2A2A2A2A2A2A2A2A2A2A2A2A1E
S3151FFF1F002A2A2A2A2A2A2A2A2A2A2A2A2A2A2A2A0D
S3151FFF1F102A2A2A2A0D0A00002A2A2A2A2A2A2A2A8E
S3151FFF1F202A2A2A20444542554720494E464F524D9D
S3151FFF1F304154494F4E20687474703A2F2F77777725
S3151FFF1F402E6834636B306E652E636F6D202A2A2AC7
S3151FFF1F502A2A2A2A2A2A2A2A0D0A0000433A5C65B8
S3151FFF1F606D6265645C4C504C445C4C504C445F4FF7
S3151FFF1F70534B696E657469735F56335C6C69625C3C
S3151FFF1F804C504C445C48575C48575F4750494F2E4F
S3151FFF1F9063000000B6CFD1D4CAA7B0DCB7A2C9FA77
S3151FFF1FA0D3DA20257320B4FAC2EBB5C4B5DA2025E0
S3151FFF1FB06420D0D0A3ACC7EBBCECB2E9B2CECAFD4E
S3151FFF1FC0A1A30A000D0A2A2A2A2ABDF8C8EBCEB4F6
S3151FFF1FD0B6A8D2E5D6D0B6CF2C496E746572727588
S3151FFF1FE07074204E756D6265722025642A2A2A2A0F
S3151FFF1FF02A0D0A004F534B696E6574697320566528
S3151FFF20007273696F6E3A2573096D61696C3A7375E1
S3151FFF201070706F7274406C706C642E636E0D0A0065
S3151FFF2020466C65784275735F636C6F636B3A2564A5
S3151FFF20304D487A0920466C6173685F636C6F636BEB
S3151FFF20403A25644D487A0D0A0000000010B507496E
S3151FFF205079441831064C7C44163404E0081D0A687F
S3151FFF2060511888470146A142F8D110BD5000000004
S3151FFF20705C000000636F72655F636C6F636B3A256D
S3151FFF2080644D487A09204275735F636C6F636B3AC1
S3151FFF209025644D487A0D0A0080B5074800688047BA
S3151FFF20A001BD80B504484068804701BD80B5024821
S3151FFF20B08068804701BD00000424FF1F03F4FFFF54
S3151FFF20C0D80200001422FF1F000000000D0A2A2A53
S3151FFF20D02A2AC4DABACBB7A2C9FAD3B2BCFEB4ED69
S3151FFF20E0CEF32A2A2A2A2A0D0A00000080B50548A0
S3151FFF20F0006850F080000349086003480068804766
S3151FFF210001BD0000000004402C24FF1F80B50548B9
S3151FFF21100068804701BD80B502484068804701BD02
S3151FFF2120000000001422FF1F00F009F8002801D04D
S3151FFF2130FFF78CFF0020FFF797FD00F002F8012045
S3151FFF2140704700F001B800000746384600F002F856
S3151FFF2150FBE70000C046C046024A11001820ABBE6F
S3151FFF2160FBE700BF2600020080B5010049B2024807
S3151FFF2170FEF7E2FA01BD000000A00640FFFFFFFFCA
S3151FFF2180FFFFFFFFFFFFFFFFFFFFFFFF00E1F5055C
S3151FFF219080B502480068804701BD0000D424FF1F99
S3151FFF21A0C046C046C046C046FFF7BEFF332E30327D
S3091FFF21B00000000007
S7051FFF21A11A
