S01B00004C504C445F53657269616C436F6D6D5F4B36302E7372656382
S3151FFF00003025FF1F1104FF1F2104FF1F9D16FF1F12
S3151FFF00102104FF1F2104FF1F2104FF1F00000000F3
S3151FFF00200000000000000000000000002104FF1F69
S3151FFF00302104FF1F000000002104FF1F2104FF1FD3
S3151FFF00401514FF1F2B14FF1F4114FF1F5714FF1FEC
S3151FFF00506D14FF1F8314FF1F9914FF1FAF14FF1F7C
S3151FFF0060C514FF1FDB14FF1FF114FF1F0715FF1F0B
S3151FFF00701D15FF1F3315FF1F4915FF1F5F15FF1F98
S3151FFF00802104FF1F2104FF1F2104FF1F2104FF1F40
S3151FFF00902104FF1F2104FF1F2104FF1F2104FF1F30
S3151FFF00A08D18FF1FE718FF1F310EFF1FDB0EFF1FE8
S3151FFF00B0850FFF1FAB13FF1FB513FF1FB713FF1FC0
S3151FFF00C0B913FF1FBB13FF1FBD13FF1FBF13FF1F58
S3151FFF00D0C113FF1FC313FF1FE513FF1FE713FF1FE8
S3151FFF00E0E913FF1FEB13FF1FED13FF1FEF13FF1F78
S3151FFF00F0F113FF1F7107FF1F2104FF1FA107FF1F1B
S3151FFF01002104FF1FD107FF1F2104FF1F0108FF1F28
S3151FFF01102104FF1F3108FF1F2104FF1F6108FF1F57
S3151FFF01202104FF1F351DFF1F3F1DFF1F2104FF1F3B
S3151FFF01302104FF1F2104FF1FE11CFF1FED1CFF1FD3
S3151FFF0140F71CFF1F2104FF1F0D1CFF1F00000000D0
S3151FFF0150CD1AFF1FE31AFF1FF91AFF1F0F1BFF1FE2
S3151FFF0160D919FF1FDD1DFF1F2104FF1FA519FF1F24
S3151FFF01707F19FF1F5919FF1FBB19FF1F2104FF1FE0
S3151FFF01802104FF1F9917FF1F0318FF1F391BFF1F8F
S3151FFF01902104FF1F151DFF1F2104FF1F591AFF1FD4
S3151FFF01A06B1AFF1F7D1AFF1F8F1AFF1FA11AFF1F33
S3151FFF01B02104FF1F2104FF1F2104FF1F2104FF1F0F
S3151FFF01C02104FF1F2104FF1F2104FF1F2104FF1FFF
S3151FFF01D02104FF1F2104FF1F2104FF1F2104FF1FEF
S3151FFF01E09F16FF1F9F16FF1F9F16FF1F9F16FF1F9F
S3151FFF041001488047014800477D15FF1FA51BFF1F8A
S3151FFF042001F03DB90FB4F0B50598069B9DF81C70FA
S3151FFF04309DF81D500899099A002B01D14FF41653A9
S3151FFF0440DFF84C44A0423FD10024DFF848643668EA
S3151FFF0450DFF844C4DCF800C05CF4806CDFF838E4D6
S3151FFF0460CEF800C0FFB2022F06D1DFF830744FF46B
S3151FFF0470007CC7F800C00FE0FFB20E2F06D1DFF8D2
S3151FFF048020744FF4407CC7F800C005E0DFF81474F2
S3151FFF04904FF4407CC7F800C0EDB2012D05D1DFF840
S3151FFF04A008544FF400772F60F4E0EDB20F2D05D1FE
S3151FFF04B0DFF8F8534FF440772F60EBE0DFF8F05388
S3151FFF04C04FF440772F60E5E0DFF8E843A0422CD1D9
S3151FFF04D00124DFF8C0633668DFF8BCC3DCF800C051
S3151FFF04E05CF4006CDFF8B0E3CEF800C0FFB27C2FE0
S3151FFF04F006D1DFF8C4734FF4407CC7F800C005E090
S3151FFF0500DFF8B8734FF4407CC7F800C0EDB27D2DFE
S3151FFF051005D1DFF8AC534FF440772F60BAE0DFF811
S3151FFF0520A4534FF440772F60B4E0DFF89C4326684F
S3151FFF0530DFF89843A04213D10224DFF85C532D68DE
S3151FFF054055F48055DFF850733D60DFF884534FF441
S3151FFF055040772F60DFF87C534FF440772F6099E089
S3151FFF0560DFF87443A0423CD10324DFF82CC3DCF829
S3151FFF057000C05CF4005CDFF820E3CEF800C0FFB2DA
S3151FFF0580802F06D1DFF854734FF4407CC7F800C0A5
S3151FFF05900FE0FFB22B2F06D1DFF844734FF4407CD9
S3151FFF05A0C7F800C005E0DFF83C734FF4407CC7F87F
S3151FFF05B000C0EDB2812D05D1DFF82C534FF44077E4
S3151FFF05C02F6067E0EDB22A2D05D1DFF820534FF4D8
S3151FFF05D040772F605EE0DFF818534FF440772F60A8
S3151FFF05E058E0DFF81043A04229D10424DFF808C3DF
S3151FFF05F0DCF800C05CF4806CDFF8FCE2CEF800C0CC
S3151FFF0600FFB2942F06D1DFF8F4724FF4407CC7F880
S3151FFF061000C005E0DFF8E8724FF4407CC7F800C062
S3151FFF0620EDB2952D05D1DFF8DC524FF440772F60E1
S3151FFF063030E0DFF8D4524FF440772F602AE00524CD
S3151FFF0640DFF8C802DFF8B0C2DCF800C05CF4006C4C
S3151FFF0650DFF8A4E2CEF800C0FFB2652F06D1DFF8A0
S3151FFF0660B0724FF4407CC7F800C005E0DFF8A472F4
S3151FFF06704FF4407CC7F800C0EDB2642D05D1DFF8FB
S3151FFF068098524FF440772F6004E0DFF890524FF4F3
S3151FFF069040772F60C57815F0F305C5700025857067
S3151FFF06A01D01B6FBF5F5077817F0E007ADB25FEA58
S3151FFF06B0152C1CF01F0C5CEA0707077045707601A7
S3151FFF06C01B01B6FBF3F3ADB2B3EB4513857A15F0FA
S3151FFF06D0E00713F01F033B4383729DF81E30012B68
S3151FFF06E00BD10B00002B08D0C37853F02003C37028
S3151FFF06F0E4B28B4B43F8241003E0C17811F0DF01FE
S3151FFF0700C1709DF81F1001290BD11100002908D0B8
S3151FFF0710C17851F08001C170E4B2824941F82420AB
S3151FFF072003E0C17811F07F01C170C17851F00C0150
S3151FFF0730C170F0BC5DF814FB01798906FCD590F9F1
S3151FFF0740070040B2704702791206FCD5C171704788
S3151FFF075070B504000D00160005E095F90010200086
S3151FFF0760FFF7F1FF6D1C3000461E0028F5D170BD47
S3151FFF077080B56D480078800606D56C4800788006E0
S3151FFF078002D567480068804767480078000606D588
S3151FFF079066480078000602D562480068804701BD9B
S3151FFF07A080B563480078800606D5624800788006C4
S3151FFF07B002D55B48406880475D480078000606D52E
S3151FFF07C05C480078000602D556484068804701BD41
S3151FFF07D080B559480078800606D5584800788006A8
S3151FFF07E002D54F488068804753480078000606D5D4
S3151FFF07F052480078000602D54A488068804701BDE7
S3151FFF080080B54F480078800606D54E48007880068B
S3151FFF081002D54348C068804749480078000606D579
S3151FFF082048480078000602D53E48C068804701BD8C
S3151FFF083080B545480078800606D54448007880066F
S3151FFF084002D53748006980473F480078000606D51E
S3151FFF08503E480078000602D532480069804701BD31
S3151FFF086080B53B480078800606D53A480078800653
S3151FFF087002D52B484069804735480078000606D5C4
S3151FFF088034480078000602D526484069804701BDD7
S3151FFF089000A00640441EFF1F3480044008900440FA
S3151FFF08A03890044044A00440049004403C90044008
S3151FFF08B040A0044000B0064000D0044010B00440E2
S3151FFF08C004D004400CB00440481EFF1F00C0064062
S3151FFF08D00CC0044008C0044000D0064010D004409E
S3151FFF08E02CA0044044B0044014D0044028A0044068
S3151FFF08F040B0044000A00E402880044060D0044052
S3151FFF09003CB0044064D0044038B0044000B00E40F1
S3151FFF091024C0044020D0044020C0044024D00440FB
S3151FFF0920E820FF1F0021FF1F04A0064003A006406B
S3151FFF093004B0064003B0064004C0064003C006408D
S3151FFF094004D0064003D0064004A00E4003A00E406D
S3151FFF095004B00E4003B00E4010B50C0011680129FC
S3151FFF096002D0022904D009E040B25168884705E04A
S3151FFF0970916808709068401C9060FFE72068401CD4
S3151FFF0980206010BD30B41C00002300250570401CDD
S3151FFF0990002A19D0096800290AD1302101705B1C72
S3151FFF09A0180030BC7047303511000570401C5B1CAA
S3151FFF09B00029F5D091FBF4F204FB1215002DF2D599
S3151FFF09C0E94311F13105EFE70968002908D1302105
S3151FFF09D001705B1CE4E7373511000570401C5B1C7B
S3151FFF09E00029DDD0B1FBF4F204FB12150A2DF2D25A
S3151FFF09F03035F1E7F8B504000D0016001F0005E0BE
S3151FFF0A003A0031003020FFF7A7FF641CAC42F7DB2B
S3151FFF0A10F1BDF8B504000D0016001F0005E03A00F2
S3151FFF0A2031002020FFF798FF641CAC42F7DBF1BDB6
S3151FFF0A302DE9F04F8DB005001600002000900C0029
S3151FFF0A4005E02A0000A91800FFF786FF641C94F92A
S3151FFF0A500030002B00F0C881252B12D00A2B05D0A2
S3151FFF0A602A0000A91800FFF777FF09E02A0000A94F
S3151FFF0A700D20FFF771FF2A0000A90A20FFF76CFF61
S3151FFF0A80E4E70027002101E057F0010700291CD1E9
S3151FFF0A90641C94F9000020280BD023280FD02B2885
S3151FFF0AA004D02D28F0D0302806D00BE057F00207D0
S3151FFF0AB0ECE757F00407E9E757F00807E6E757F0B3
S3151FFF0AC01007E3E7641E0121E0E75FF0000800213E
S3151FFF0AD004E00A2000FB0830B0F13008002909D1D5
S3151FFF0AE0641C94F90030180030380928F1D9641EA8
S3151FFF0AF00121F3E7641C94F900002E280CD1002175
S3151FFF0B00FFE7002909D1641C94F900003038092832
S3151FFF0B10F7D9641E0121F4E7641E641C94F90000D3
S3151FFF0B204C2806D0682802D06C2801D002E002E0CC
S3151FFF0B3001E000E0641E641C94F900301800582879
S3151FFF0B4074D0622800F0D080632800F018816428D3
S3151FFF0B5013D0692811D06E2800F041816F2800F04D
S3151FFF0B60B880702800F0CB80732800F0108175289D
S3151FFF0B7000F0D080782859D063E730680390361D80
S3151FFF0B800A23012203A904A8FFF7FCFE824604A835
S3151FFF0B901AEB00090398002804D52D2002901AF19D
S3151FFF0BA0010A0FE0B80704D52B2002901AF1010A9C
S3151FFF0BB008E0780704D5202002901AF1010A01E008
S3151FFF0BC0002002905FF0000B380711D5029800280E
S3151FFF0BD004D02A0000A90298FFF7BEFE5FF0010BA3
S3151FFF0BE02B0000AA41465046FFF704FFC24611E0FD
S3151FFF0BF0F8070FD42B0000AA41465046FFF709FFFF
S3151FFF0C000298002804D02A0000A90298FFF7A4FE25
S3151FFF0C105FF0010BBBF1000F07D10298002804D02C
S3151FFF0C202A0000A90298FFF797FE9BE03068019004
S3151FFF0C30361D1023002201A904A8FFF7A3FE824633
S3151FFF0C4004A81AEB00095FF0000B380715D5F80645
S3151FFF0C500BD52A0000A93020FFF77EFE2A0000A928
S3151FFF0C607820FFF779FE5FF0010B2B0000AA4146A4
S3151FFF0C705046FFF7BFFEC24619E0F80717D4F8061E
S3151FFF0C8001D51AF1020A2B0000AA41465046FFF76B
S3151FFF0C90C0FEF8060BD52A0000A93020FFF75CFE21
S3151FFF0CA02A0000A97820FFF757FE5FF0010BF80611
S3151FFF0CB00ED5BBF1000F0BD12A0000A93020FFF77D
S3151FFF0CC04BFE2A0000A97820FFF746FE1AF1020AFB
S3151FFF0CD048E030680190361D0823002201A904A8A9
S3151FFF0CE0FFF750FE82461FE030680190361D022334
S3151FFF0CF0002201A904A8FFF745FE824614E03068CB
S3151FFF0D000190361D1023002201A904A8FFF73AFE02
S3151FFF0D10824609E030680190361D0A23002201A989
S3151FFF0D2004A8FFF72FFE824604A81AEB000938070F
S3151FFF0D3007D52B0000AA41465046FFF75BFEC2466A
S3151FFF0D4010E0F8070ED42B0000AA41465046FFF7C6
S3151FFF0D5060FE07E02A0000A999F90000FFF7FCFDD6
S3151FFF0D60B9F1010999F900000028F3D1F80705D554
S3151FFF0D702B0000AA41465046FFF74BFE66E696F943
S3151FFF0D800000361D2A0000A9FFF7E6FD5EE6D6F82E
S3151FFF0D900090361DB9F1000F20D0484600F03AF8F3
S3151FFF0DA08246F8070ED42B0000AA41465046FFF78E
S3151FFF0DB030FE07E02A0000A999F90000FFF7CCFDD6
S3151FFF0DC019F1010999F900000028F3D1F80705D594
S3151FFF0DD02B0000AA41465046FFF71BFE36E630683A
S3151FFF0DE0361D0099016031E600980DB0BDE8F08F02
S3151FFF0DF00EB400B584B0012100910549019105AAE2
S3151FFF0E00010000A8FFF714FE04B05DF810FB0000F9
S3151FFF0E10A51DFF1F0021002802D1002007E0491C46
S3151FFF0E200200501C92F90020002AF8D108007047D3
S3151FFF0E3080B582480068002809D57D48006880472D
S3151FFF0E407E48006850F000407C49086044E07B48BC
S3151FFF0E500068C00009D57648406880477748006814
S3151FFF0E6050F080507549086036E0744800680001ED
S3151FFF0E7009D56F48806880477048006850F000604A
S3151FFF0E806E49086028E06D480068800109D56848EB
S3151FFF0E90006980476948006850F00070674908601D
S3151FFF0EA01AE066480068000309D56148C068804795
S3151FFF0EB06248006850F40020604908600CE05F48F4
S3151FFF0EC00068800308D55A48406980475B48006819
S3151FFF0ED050F400305949086001BD80B55848006875
S3151FFF0EE0002809D55348006880475548006850F0C9
S3151FFF0EF000405349086044E051480068C00009D5C7
S3151FFF0F004C48406880474E48006850F080504C4917
S3151FFF0F10086036E04A480068000109D545488068E1
S3151FFF0F2080474748006850F000604549086028E041
S3151FFF0F3043480068800109D53E48006980474048FD
S3151FFF0F40006850F000703E4908601AE03C48006890
S3151FFF0F50000309D53748C06880473948006850F4F1
S3151FFF0F600020374908600CE035480068800308D524
S3151FFF0F703048406980473248006850F40030304996
S3151FFF0F80086001BD80B52F480068002809D52A488B
S3151FFF0F90006880472B48006850F0004029490860C9
S3151FFF0FA044E028480068C00009D5234840688047A9
S3151FFF0FB02448006850F080502249086036E02148D7
S3151FFF0FC00068000109D51C48806880471D480068D6
S3151FFF0FD050F000601B49086028E01A48006880012E
S3151FFF0FE009D51548006980471648006850F00070FC
S3151FFF0FF0144908601AE013480068000309D50E4814
S3151FFF1000C06880470F48006850F400200D490860EC
S3151FFF10100CE00C480068800308D5074840698047E5
S3151FFF10200848006850F400300649086001BD0000FB
S3151FFF10309820FF1FB020FF1FC820FF1F2CC0024094
S3151FFF10402CD002402CC00A40F8B5C0B2C92801D324
S3151FFF1050C820FFE7C0B2010030290ED032292CD09D
S3151FFF106060292DD064292ED078292FD0962930D0EC
S3151FFF1070B42931D0C82932D034E018270025C0B291
S3151FFF1080010032290AD0642930D0782931D0962918
S3151FFF109032D0B42933D0C82934D036E007270125EB
S3151FFF10A006000024C0B23221B0FBF1F1491E0A002F
S3151FFF10B0D2B2FF2A2DD1002133E018270125DEE703
S3151FFF10C018271825DBE718271A25D8E7132718250A
S3151FFF10D0D5E70F271825D2E70E271E25CFE70C27A3
S3151FFF10E01C25CCE76020FFF7AFFF93E007271025EE
S3151FFF10F0D6E704270825D3E704270E25D0E70427BD
S3151FFF11001425CDE704271825CAE76020FFF79CFFA4
S3151FFF111080E0C0B2C9B24A1C90FBF2F2332A00D359
S3151FFF1120491CC0B23222B0FBF2F2521E1300DBB2D1
S3151FFF1130FF2B01D1002207E0C0B2D2B2531C90FB96
S3151FFF1140F3F3332B00D3521CC0B21923B0FBF3F3B7
S3151FFF11505B1E9C465FFA8CFCBCF1FF0F01D100237F
S3151FFF116008E0C0B2DBB213F1010C90FBFCF01A28AA
S3151FFF117000D35B1C28485FF0000C80F800C027488F
S3151FFF1180006850F08050DFF894C0CCF80000244868
S3151FFF1190007850F08000DFF888C08CF800002148E7
S3151FFF11A05FF0980C80F800C01F480078C006FBD47C
S3151FFF11B01D480078C0F38100C0B20228F8D117F08E
S3151FFF11C01F001A4F38701A4800270770DBB2D2B2BA
S3151FFF11D0C9B2E4B2200000F00FFE15F01F0050F059
S3151FFF11E0400013490870104800788006FBD50E484B
S3151FFF11F000784006FBD50B48007810F03F000949E1
S3151FFF1200087009480078C0F38100C0B20328F8D1DF
S3151FFF12103000C0B2F2BD00BF01400640348004401B
S3151FFF122008C00740004006400640064004400640EF
S3151FFF123005400640C9B2202906D2026B012313FAC5
S3151FFF124001F11143016306E0C26A0123203913FA34
S3151FFF125001F11143C1627047C9B2202904D2006B45
S3151FFF1260C84010F0010004E0C06A2039C84010F0E2
S3151FFF12700100C0B2704738B505000C002100C9B286
S3151FFF12802800FFF7E9FF002812D02100C9B2280066
S3151FFF1290FFF7D0FF4E4885420BD1E4B24E4850F8B8
S3151FFF12A02400002804D0E4B24B4850F8240080479E
S3151FFF12B031BD484885420BD1E4B2484850F8240057
S3151FFF12C00028F5D0E4B2454850F824008047EFE7E1
S3151FFF12D0EEE738B504000D002900C9B22000FFF75D
S3151FFF12E0BBFF002812D03A48844210D1EDB23A48CC
S3151FFF12F050F82500002804D0EDB2374850F82500D6
S3151FFF130080472900C9B22000FFF794FF31BD31483E
S3151FFF131084420BD1EDB2314850F825000028F0D09A
S3151FFF1320EDB22E4850F825008047EAE7EEE738B5BD
S3151FFF13300400002507E0C9B2012903D12900C9B25C
S3151FFF1340FFF7C7FF6D1CEDB2102D0ED2EDB22801B0
S3151FFF13500059EDB214EB0511497AC9B20229EAD138
S3151FFF13602900C9B2FFF787FFECE731BD38B5040087
S3151FFF1370002507E0C9B2012903D12900C9B2FFF72A
S3151FFF1380A8FF6D1CEDB2102D0ED2EDB2280100592C
S3151FFF1390EDB214EB0511497AC9B20229EAD1290028
S3151FFF13A0C9B2FFF768FFECE731BD80B50C48FFF701
S3151FFF13B0BEFF01BD70477047704770477047704744
S3151FFF13C0704780B50648FFF7D1FF01BD000000003B
S3151FFF13D00040024000400A40601FFF1FA01FFF1F63
S3151FFF13E0601EFF1F704770477047704770477047F3
S3151FFF13F0704750F8041B61B150F8042BD30744BF45
S3151FFF1400A9F101039A18002342F8043B091FFAD1D9
S3151FFF1410EFE7704780B55748006880475648006812
S3151FFF142050F001005449086001BD80B5514840681E
S3151FFF143080475148006850F002004F49086001BDC0
S3151FFF144080B54C48806880474B48006850F00400C1
S3151FFF14504949086001BD80B54648C0688047464870
S3151FFF1460006850F008004449086001BD80B5414837
S3151FFF1470006980474048006850F010003E490860E9
S3151FFF148001BD80B53B48406980473B48006850F027
S3151FFF149020003949086001BD80B5364880698047FD
S3151FFF14A03548006850F040003349086001BD80B5DC
S3151FFF14B03048C06980473048006850F080002E4989
S3151FFF14C0086001BD80B52B48006A80472A4800681F
S3151FFF14D050F480702849086001BD80B52548406AD1
S3151FFF14E080472548006850F400702349086001BDF6
S3151FFF14F080B52048806A80471F48006850F001006A
S3151FFF15001D49086001BD80B51A48C06A80471A4841
S3151FFF1510006850F400601849086001BD80B5154882
S3151FFF1520006B80471448006850F4805012490860CA
S3151FFF153001BD80B50F48406B80470F48006850F4C8
S3151FFF154000500D49086001BD80B50A48806B804772
S3151FFF15500948006850F480400749086001BD80B5FF
S3151FFF15600448C06B80470448006850F40040024996
S3151FFF1570086001BDF81FFF1F2480004000B587B01C
S3151FFF15803948006850F478503749086037484CF29D
S3151FFF15902051018035484DF62811018034484FF4FC
S3151FFF15A0E971018000F07CF87820FFF74DFD00F010
S3151FFF15B035F830483049096801602E4800682F49C1
S3151FFF15C00968C1F30361491CB0FBF1F02C490860A0
S3151FFF15D02848006829490968C1F30351491CB0FB14
S3151FFF15E0F1F0284908602348006824490968C1F3B8
S3151FFF15F00341491CB0FBF1F02349086023480190C2
S3151FFF16004FF41650029001A984B06846142200F0C9
S3151FFF161097F80FBCFEF706FF07B000BD1C48007802
S3151FFF1620C0B210F01F0018301A4948431A490978EB
S3151FFF1630C9B211F01F01491CB0FBF1F0144909781B
S3151FFF1640C9B211F00F011031124A51430800124956
S3151FFF16500978C9B211F00701491CB0FBF1F0400828
S3151FFF16600549086070470000388004400E2005407A
S3151FFF167000200540441EFF1F541EFF1F44800440C9
S3151FFF1680481EFF1F501EFF1F4C1EFF1F00A00640B8
S3151FFF16900540064080F0FA02044006407047704737
S3151FFF16A01C481D4988420BD0002006E019491A4ADB
S3151FFF16B052F8202041F82020401CB0F5826FF5D349
S3151FFF16C01648144901601649164A1748801A03E03F
S3151FFF16D013780B70521C491C0300581E002BF7D1A1
S3151FFF16E012491348401A02E000220A70491C0200E1
S3151FFF16F0501E002AF8D10F490F4A1048801A03E0DF
S3151FFF170013780B70521C491C0300581E002BF7D170
S3151FFF1710704700BF0000FF1F0000FF1F08ED00E01E
S3151FFF1720441EFF1FB81DFF1FCC1DFF1F581EFF1F87
S3151FFF17303021FF1FF81DFF1F6C1CFF1FB81CFF1F4B
S3151FFF1740103A07D330B4B1E83810103AA0E8381072
S3151FFF1750F9D230BC530724BFB1E80810A0E8081020
S3151FFF176044BF51F8043B40F8043BD20724BF31F86E
S3151FFF1770022B20F8022B44BF0B7803707047083AE1
S3151FFF178007D3B1E80810083A40F8043B40F804CBEA
S3151FFF1790F7D25307E4E7000080B538480078C00743
S3151FFF17A00CD537480078C00708D5314800688047F1
S3151FFF17B03248007810F0FE00304908702F48007835
S3151FFF17C080070CD52E480078800708D52948006862
S3151FFF17D080472A48007810F0FD00284908702748DF
S3151FFF17E0007840070CD526480078400708D52248C1
S3151FFF17F0006880472148007810F0FB001F490870DA
S3151FFF180001BD80B51F480078C0070CD51E4800785C
S3151FFF1810C00708D51648406880471A48007810F059
S3151FFF1820FE00184908701748007880070CD5164820
S3151FFF18300078800708D50F48406880471148007811
S3151FFF184010F0FD000F4908700E48007840070CD5B1
S3151FFF18500D480078400708D5074840688047094864
S3151FFF1860007810F0FB000749087001BD000000005B
S3151FFF1870E01FFF1FE81FFF1FF01FFF1F20C00C40A9
S3151FFF188021C00C4020D00C4021D00C4080B52E48E3
S3151FFF18900078800726D52B48006880472B4800789D
S3151FFF18A0000705D52948007850F00800274908701A
S3151FFF18B026480078800705D52448007850F0020097
S3151FFF18C02249087020480078C00605D51E480078B3
S3151FFF18D050F010001C4908701B48007850F002009A
S3151FFF18E01949087001BD80B519480078800726D5AC
S3151FFF18F014484068804717480078000705D51548E4
S3151FFF1900007850F0080013490870124800788007C6
S3151FFF191005D51048007850F002000E4908700C4894
S3151FFF19200078C00605D50A48007850F01000084910
S3151FFF193008700748007850F002000549087001BD7E
S3151FFF1940000000006820FF1F036006400860064076
S3151FFF1950037006400870064080B5DFF87800006800
S3151FFF196050F00070DFF86C100860DFF86400006845
S3151FFF1970002803D0DFF858000068804701BD80B5F7
S3151FFF1980DFF85000006850F00060DFF8481008606D
S3151FFF1990DFF83C004068002803D0DFF834004068BA
S3151FFF19A0804701BD80B5DFF828008068002803D077
S3151FFF19B0DFF81C008068804701BD80B5DFF8100087
S3151FFF19C0C068002803D0DFF80800C068804701BD44
S3151FFF19D03820FF1F04000C4080B51A4800684006D8
S3151FFF19E00CD518480068800608D517480068804739
S3151FFF19F01448006830F04000124908601448006818
S3151FFF1A00C0070CD50F480068800308D50F4800682C
S3151FFF1A1080470F48006850F001000D4908600D48C8
S3151FFF1A20006880070CD507480068800308D507485C
S3151FFF1A30006880470748006850F0020005490860A4
S3151FFF1A4001BD0000006003407420FF1F7820FF1FA9
S3151FFF1A50146003403C60034080B51648006880470A
S3151FFF1A6015485FF0FF31016001BD80B51148406821
S3151FFF1A70804712485FF0FF31016001BD80B50D48F9
S3151FFF1A80806880470E485FF0FF31016001BD80B55A
S3151FFF1A900848C06880470B485FF0FF31016001BDF2
S3151FFF1AA080B504480069804707485FF0FF31016032
S3151FFF1AB001BD00005420FF1FA0900440A0A00440BA
S3151FFF1AC0A0B00440A0C00440A0D0044080B5154874
S3151FFF1AD0006880471448006850F0010012490860EB
S3151FFF1AE001BD80B50F48406880471048006850F019
S3151FFF1AF001000E49086001BD80B50A48806880470E
S3151FFF1B000B48006850F001000949086001BD80B508
S3151FFF1B100448C06880470748006850F00100054920
S3151FFF1B20086001BD7C20FF1F0C7103401C71034021
S3151FFF1B302C7103403C71034080B51648006848F27C
S3151FFF1B401001084217D014480068002813D0124806
S3151FFF1B50006880470F48006850F480400D490860B1
S3151FFF1B600C48006850F400400A4908600B484FF6BE
S3151FFF1B70FF7101600DE009480068002809D006487B
S3151FFF1B804068002805D00448406880470348044939
S3151FFF1B90016001BD00500440E020FF1F0C500440B0
S3151FFF1BA00000FFFF00F011F8122214491448FEF738
S3151FFF1BB0CFFD1448FFF71CF91148FEF7BDFD0100C5
S3151FFF1BC049B20F48FEF7BFFDF6E780B50E480C4931
S3151FFF1BD001600D484FF4165141600B483021417289
S3151FFF1BE0094831210172084984B068461422FFF75C
S3151FFF1BF0A7FD0FBCFEF716FC01BD0000901DFF1FC2
S3151FFF1C0000A00640CC1DFF1F1C21FF1F80B51648D5
S3151FFF1C100068C00709D51348006880471248006847
S3151FFF1C2050F00100104908601AE00F48006880074E
S3151FFF1C3009D50C48406880470B48006850F00200E2
S3151FFF1C40094908600CE008480068400708D50548A1
S3151FFF1C50806880470448006850F004000249086006
S3151FFF1C6001BD00008C20FF1F14D0034070B4104C21
S3151FFF1C7024680F4D2D6855F47F050D4E35600906F7
S3151FFF1C8011F0706151EA0070110511F470010843DC
S3151FFF1C90190411F47021084306490860002000E06B
S3151FFF1CA0401CC0B29842FBD30148046070BC70470A
S3151FFF1CB000F001404480044010B5074979441831AC
S3151FFF1CC0064C7C44163404E0081D0A6851188847E1
S3151FFF1CD00146A142F8D110BD2C00000038000000BC
S3151FFF1CE080B507480068804701BD000080B50448DE
S3151FFF1CF04068804701BD80B501488068804701BDA8
S3151FFF1D004820FF1FEFF6FFFFD8020000581EFF1FD8
S3151FFF1D100000000080B50548006850F080000349A9
S3151FFF1D20086003480068804701BD000000000440AB
S3151FFF1D307020FF1F80B505480068804701BD80B52D
S3151FFF1D4002484068804701BD00000000581EFF1F64
S3151FFF1D5000F009F8002801D0FFF7AEFF0020FFF7BC
S3151FFF1D6021FF00F002F80120704700F001B80000C4
S3151FFF1D700746384600F002F8FBE70000C046C0469C
S3151FFF1D80024A11001820ABBEFBE700BF2600020068
S3151FFF1D90496E70757420736F6D657468696E673AE7
S3151FFF1DA00D0A000080B5010049B20248FEF7CBFCC1
S3151FFF1DB001BD000000A00640FFFFFFFFFFFFFFFF63
S3151FFF1DC0FFFFFFFFFFFFFFFF00E1F50568656C6C77
S3151FFF1DD06F20776F726C6420210A000080B502485E
S3151FFF1DE00068804701BD00001821FF1FC046C0467F
S30D1FFF1DF0C046C046FFF7ACFF1A
S7051FFF1DEDD2
